:100000000C943C010C945D010C945D010C945D0119
:100010000C945D010C945D010C945D010C945D01E8
:100020000C945D010C945D010C945D010C945D01D8
:100030000C945D010C945D010C945D010C945D01C8
:100040000C945D010C945D010C945D010C945D01B8
:100050000C945D010C945D010C945D010C948E0870
:100060000C945D010C945D010C945D010C945D0198
:100070000C945D010C945D010C945D010C945D0188
:100080000C945D010C945D010C945D010C945D0178
:100090000C945D010C945D010C945D010C945D0168
:1000A0000C945D010C945D010C945D010C945D0158
:1000B0000C945D010C945D010C945D010C945D0148
:1000C0000C945D010C945D010C945D010C945D0138
:1000D0000C945D010C945D010C945D010C945D0128
:1000E0000C945D0110071A07F206FC06060792073A
:1000F00024072E07380742074C07560760076A0790
:10010000920774077E0788070C94A00C0C9456077E
:100110000C9438070C9406070C946A070C940C0C8A
:100120000C949A0D0C9488070C94F2060C944207D8
:100130000C944C070C94FC060C9460070C949207EA
:100140000C9410070C9474070C941A070C947E07F7
:100150000C9424070C942E07000021002400270093
:100160002A002D00300033000101000004010701C6
:100170000A0100002200250028002B002E0031007B
:10018000340002010000050108010B0100002000FD
:100190002300260029002C002F003200000100005F
:1001A00003010601090105050505070508080808FA
:1001B000020202020A0A08080404040401010101FF
:1001C00001010101030303030303030304070707FA
:1001D0000C0C0C0C0C0C0C0C02020202060606069F
:1001E000060606060B0B0B0B0B0B0B0B010210206C
:1001F000200808102040102040800201020108045D
:1002000002010102040810204080804020100804F0
:100210000201800402018040201008040201080449
:10022000020101020408102040800102040810208D
:10023000408000000A0B02090C0D0E0807030401A0
:1002400000000000000000000000000000000000AE
:10025000000000000000000000000000000012117B
:10026000100000000000000000000000000000007E
:10027000000000000000000011241FBECFEFD1E2FB
:10028000DEBFCDBF00E00CBF12E0A0E0B2E0E0E9CD
:10029000FDE200E00BBF02C007900D92A837B10746
:1002A000D9F722E0A8E7B2E001C01D92A538B20755
:1002B000E1F70E94A5100C94C6160C940000CF9391
:1002C000DF9300D01F92CDB7DEB79A8389837C83FA
:1002D0006B838B819C810E94BD169C0189819A81D0
:1002E0004CE0FC01542F11925A95E9F789819A81CB
:1002F0004B815C81FC015183408389819A814AE072
:1003000050E0FC015583448389819A8146E052E0A4
:10031000FC015783468389819A81FC0131872087BC
:1003200089819A810F900F900F900F90DF91CF915C
:100330000895CF93DF9300D01F92CDB7DEB79A8395
:1003400089837C836B8389819A812CE0FC01322F25
:1003500011923A95E9F789819A812B813C81FC01C0
:100360003183208389819A8126E032E0FC01378342
:10037000268389819A8121E030E0FC013187208742
:1003800089819A810F900F900F900F90DF91CF91FC
:100390000895CF93DF9300D01F92CDB7DEB79A8335
:1003A00089837C836B8389819A812CE0FC01322FC5
:1003B00011923A95E9F789819A812B813C81FC0160
:1003C0003183208389819A8129E030E0FC013583E3
:1003D000248389819A8126E032E0FC0137832683D9
:1003E00089819A8121E030E0FC0131872087898171
:1003F0009A810F900F900F900F90DF91CF910895F9
:10040000CF93DF9300D01F92CDB7DEB79A83898355
:100410007C836B838B819C810E94BD169C018981AA
:100420009A814CE0FC01542F11925A95E9F7898189
:100430009A814B815C81FC015183408389819A813F
:100440004BE050E0FC015583448389819A8146E06A
:1004500052E0FC015783468389819A81FC013187F0
:10046000208789819A810F900F900F900F90DF91D4
:10047000CF910895CF93DF931F921F92CDB7DEB730
:100480009A83898389819A812CE0FC01322F119211
:100490003A95E9F789819A8128EE33E0FC013583AA
:1004A000248389819A8126E032E0FC013783268308
:1004B00089819A810F900F90DF91CF910895CF930A
:1004C000DF9300D000D0CDB7DEB79A8389837C83D9
:1004D0006B835E834D838B819C810E94BD169C0142
:1004E00089819A814CE0FC01542F11925A95E9F7C9
:1004F00089819A814B815C81FC0151834083898190
:100500009A814AE050E0FC015583448389819A81B5
:100510004D815E81FC015783468389819A81FC016C
:100520003187208789819A8126960FB6F894DEBF9D
:100530000FBECDBFDF91CF910895CF93DF9300D051
:1005400000D0CDB7DEB79A8389837C836B835E83CB
:100550004D8389819A812CE0FC01322F11923A95CA
:10056000E9F789819A812B813C81FC0131832083C9
:1005700089819A812D813E81FC013783268389817F
:100580009A8121E030E0FC013187208789819A81BE
:1005900026960FB6F894DEBF0FBECDBFDF91CF9188
:1005A0000895CF93DF9300D000D0CDB7DEB79A8304
:1005B00089837C836B835E834D8389819A812CE060
:1005C000FC01322F11923A95E9F789819A812B81AA
:1005D0003C81FC013183208389819A8129E030E0CC
:1005E000FC013583248389819A812D813E81FC0120
:1005F0003783268389819A8121E030E0FC013187AD
:10060000208789819A8126960FB6F894DEBF0FBEA7
:10061000CDBFDF91CF910895CF93DF9300D000D06D
:10062000CDB7DEB79A8389837C836B835E834D83EA
:100630008B819C810E94BD169C0189819A814CE02E
:10064000FC01542F11925A95E9F789819A814B81C7
:100650005C81FC015183408389819A814BE050E0A9
:10066000FC015583448389819A814D815E81FC011F
:100670005783468389819A81FC013187208789814C
:100680009A8126960FB6F894DEBF0FBECDBFDF91DC
:10069000CF910895CF93DF9300D01F92CDB7DEB7EF
:1006A0009A8389837C836B8389819A812CE0FC0106
:1006B000322F11923A95E9F789819A8128EE33E039
:1006C000FC013583248389819A812B813C81FC0143
:1006D0003783268389819A810F900F900F900F9016
:1006E000DF91CF910895EF92FF920F931F93CF93D5
:1006F000DF93CDB7DEB72C970FB6F894DEBF0FBEF1
:10070000CDBFE982FA820B831C832D833E834F8306
:10071000588769877A878B879C8789819A812C96ED
:100720000FB6F894DEBF0FBECDBFDF91CF911F9102
:100730000F91FF90EF900895EF92FF920F931F9308
:10074000CF93DF93CDB7DEB72C970FB6F894DEBF0B
:100750000FBECDBFE982FA820B831C832D833E83BB
:100760004F83588769877A878B879C8789819A818D
:100770002C960FB6F894DEBF0FBECDBFDF91CF91A0
:100780001F910F91FF90EF900895CF92DF92EF921B
:10079000FF920F931F93CF93DF93CDB7DEB7A89748
:1007A0000FB6F894DEBF0FBECDBF9C8F8B8FCD8E62
:1007B000DE8EEF8EF8A209A31AA32BA33CA34DA3B0
:1007C0005EA36FA378A78B8D9C8DFC01848195819E
:1007D000893C910509F06AC01A8219824DC08B8D3F
:1007E0009C8DFC014081518129813A81C901880F8A
:1007F000991F820F931F880F991F880F991F840FCD
:10080000951FFC0186819781FC018081882379F105
:100810008B8D9C8DFC014081518129813A81C901D8
:10082000880F991F820F931F880F991F880F991F98
:10083000840F951FFC01268137818D8D9E8DB90116
:100840000E94B416009799F48B8D9C8DFC01408119
:10085000518129813A81C901880F991F820F931F05
:10086000880F991F880F991F840F951F2DC08981AC
:100870009A8101969A8389838B8D9C8DFC012285B8
:10088000338589819A81821793070CF4A8CF2CE0D5
:10089000CE010F96FC01322F11923A95E9F788EEBE
:1008A00093E09C8B8B8BCE010F960EC02CE0CE017B
:1008B0000396FC01322F11923A95E9F788EE93E006
:1008C00098878F83CE010396A8960FB6F894DEBF63
:1008D0000FBECDBFDF91CF911F910F91FF90EF9091
:1008E000DF90CF900895CF93DF9300D01F92CDB7C4
:1008F000DEB79C838B838B819C81FC0182859385F1
:100900009A8389838B819C81FC01828593859C01DC
:100910002F5F3F4F8B819C81FC01338722878B8126
:100920009C81FC014081518129813A81C901880F54
:10093000991F820F931F880F991F880F991F840F8B
:10094000951F0F900F900F900F90DF91CF9108950A
:10095000CF93DF9300D01F92CDB7DEB79A83898300
:100960007C836B8389819A81FC01228533858B810D
:100970009C81280F391F89819A81FC01808591858E
:10098000281739070CF456C089819A81FC01228509
:1009900033858B819C81280F391F89819A81FC01C5
:1009A00080859185880F991F28173907FCF4898164
:1009B0009A81FC0120853185C901880F991F820F1A
:1009C000931F880F991F880F991F880F991F9C01EB
:1009D00089819A81FC0180819181B9010E94C215AF
:1009E0009C0189819A81FC013183208389819A81CC
:1009F000FC0180859185AC012B813C81C901880F68
:100A0000991F820F931F880F991F880F991F880FB6
:100A1000991F9A01280F391F89819A81FC018081D1
:100A20009181B9010E94C2159C0189819A81FC01C2
:100A30003183208389819A810F900F900F900F90BE
:100A4000DF91CF910895CF93DF93CDB7DEB7629753
:100A50000FB6F894DEBF0FBECDBF988B8F877A8B11
:100A6000698B2CE0CE010396FC01322F11923A954E
:100A7000E9F780E690E00E949B149C838B8388ECCE
:100A800090E098878F8389899A899C878B871A82BF
:100A9000198225C04B815C8129813A81C901880F67
:100AA000991F820F931F880F991F880F991F840F1A
:100AB000951F4CE09C01F901542F11925A95E9F7CA
:100AC00028EE33E0FC013583248321E132E0FC0190
:100AD0003783268389819A8101969A838983298124
:100AE0003A8189899A8928173907A4F28F859889CC
:100AF0002CE0FE013396DC0101900D922A95E1F77E
:100B00008F85988962960FB6F894DEBF0FBECDBF71
:100B1000DF91CF910895CF93DF9300D000D0CDB770
:100B2000DEB79A8389837C836B835E834D832B81BD
:100B30003C81C901880F991F820F931F880F991F4D
:100B4000880F991F0E949B149C0189819A814CE017
:100B5000FC01542F11925A95E9F789819A81FC0181
:100B60003183208389819A8129EC30E0FC0135832F
:100B7000248389819A812D813E81FC0137832683DC
:100B800089819A812B813C81FC0131872087898171
:100B90009A8126960FB6F894DEBF0FBECDBFDF91C7
:100BA000CF910895CF93DF9300D000D0CDB7DEB7BB
:100BB0009A8389837C836B835E834D8389819A8149
:100BC0002CE0FC01322F11923A95E9F789819A8144
:100BD0002B813C81FC013183208389819A812AEC1D
:100BE00030E0FC013583248389819A812D813E8107
:100BF000FC013783268389819A8121E030E0FC0162
:100C00003187208789819A8126960FB6F894DEBFB6
:100C10000FBECDBFDF91CF910895CF93DF93CDB7B6
:100C2000DEB769970FB6F894DEBF0FBECDBF888FD1
:100C3000698F888D882F90E084519E4F9A83898395
:100C400089819A81FC0184918B838B818C83888D2F
:100C5000882F90E08A559E4F9E838D838D819E8143
:100C6000FC0184918F838F8188878885882309F48C
:100C700094C08885882F90E0880F991F885A9E4FCE
:100C80009A87898789859A85FC0125913491CF01BE
:100C90003C872B879A8789878B859C859E878D8744
:100CA0008885882F90E0880F991F8E589E4F988BCB
:100CB0008F878F859889FC0125913491CF013A8BDC
:100CC000298B988B8F8789899A899C8B8B8B898DAF
:100CD000882331F58FE590E0FC0180818D8BF894BD
:100CE0008D859E85FC018081982F8C81809589233C
:100CF000282F8D859E85FC0120838B899C89FC0192
:100D00008081982F8C8180958923282F8B899C89BD
:100D1000FC0120838FE590E02D89FC0120833DC0FC
:100D2000898D823021F58FE590E0FC0180818E8BEA
:100D3000F8948D859E85FC018081982F8C8180950B
:100D40008923282F8D859E85FC0120838B899C8992
:100D5000FC0190818C81292F282B8B899C89FC0197
:100D600020838FE590E02E89FC01208316C08FE55B
:100D700090E0FC0180818F8BF8948D859E85FC012D
:100D800090818C81292F282B8D859E85FC012083C5
:100D90008FE590E02F89FC01208369960FB6F894C7
:100DA000DEBF0FBECDBFDF91CF910895CF93DF930C
:100DB0001F92CDB7DEB789838981882F90E0AA275B
:100DC00097FDA095BA2F41E050E021E130E0841B6F
:100DD000950B2817390708F4A5C08E589F4FFC01C2
:100DE0000C944C1380E890E020E830E0F901208179
:100DF0002F77FC01208396C080E890E020E830E067
:100E0000F90120812F7DFC0120838CC080E890E0D7
:100E100020E830E0F9012081277FFC01208382C097
:100E200084E490E024E430E0F90120812F77FC0194
:100E3000208378C084E490E024E430E0F90120814C
:100E40002F7DFC0120836EC080EB90E020EB30E032
:100E5000F90120812F77FC01208364C080EB90E0B2
:100E600020EB30E0F90120812F7DFC0120835AC066
:100E700080E990E020E930E0F90120812F77FC0142
:100E8000208350C080E990E020E930E0F901208122
:100E90002F7DFC01208346C080E990E020E930E00E
:100EA000F9012081277FFC0120833CC080EA90E08B
:100EB00020EA30E0F90120812F77FC01208332C045
:100EC00080EA90E020EA30E0F90120812F7DFC01EA
:100ED000208328C080EA90E020EA30E0F9012081F8
:100EE000277FFC0120831EC080E291E020E231E0F8
:100EF000F90120812F77FC01208314C080E291E06A
:100F000020E231E0F90120812F7DFC0120830AC01D
:100F100080E291E020E231E0F9012081277FFC01AD
:100F2000208300000F90DF91CF910895CF93DF933E
:100F3000CDB7DEB765970FB6F894DEBF0FBECDBF55
:100F40008C8B6D8B8C89882F90E08E5C9D4F9A8363
:100F5000898389819A81FC0184918B838B818C8325
:100F60008C89882F90E084519E4F9E838D838D8144
:100F70009E81FC0184918F838F8188878C89882F43
:100F800090E08A559E4F9A87898789859A85FC01CA
:100F900084918B878B858C878C85882309F444C04A
:100FA0008C81882319F08C810E94D6068C85882F2D
:100FB00090E0880F991F8E589E4F9E878D878D8554
:100FC0009E85FC0125913491CF01388B2F879E8718
:100FD0008D878F8598899A8B898B8FE590E0FC01AE
:100FE00080818B8BF8948D89882371F489899A8903
:100FF000FC018081982F888580958923282F8989F5
:101000009A89FC0120830BC089899A89FC0190810F
:101010008885292F282B89899A89FC0120838FE5CF
:1010200090E02B89FC01208365960FB6F894DEBF13
:101030000FBECDBFDF91CF910895CF93DF93CDB792
:10104000DEB761970FB6F894DEBF0FBECDBF898BB8
:101050008989882F90E08E5C9D4F9A83898389814E
:101060009A81FC0184918B838B818C838989882F61
:1010700090E084519E4F9E838D838D819E81FC01E3
:1010800084918F838F8188878989882F90E08A5502
:101090009E4F9A87898789859A85FC0184918B87E1
:1010A0008B858C878C85882319F480E090E026C09E
:1010B0008C81882319F08C810E94D6068C85882F1C
:1010C00090E0880F991F84579E4F9E878D878D854E
:1010D0009E85FC0125913491CF01388B2F879E8707
:1010E0008D878F859889FC01908188858923882345
:1010F00019F081E090E002C080E090E061960FB6C8
:10110000F894DEBF0FBECDBFDF91CF910895CF938E
:10111000DF93CDB7DEB7DF91CF9108951F920F9285
:1011200000905F000F9211248F939F93AF93BF9312
:10113000CF93DF93CDB7DEB72597DEBFCDBF8091CC
:101140007C0290917D02A0917E02B0917F02898302
:101150009A83AB83BC83809180028D8389819A813D
:10116000AB81BC810196A11DB11D89839A83AB839C
:10117000BC838D818D5F8D838D818D3770F08D81E6
:101180008D578D8389819A81AB81BC810196A11D88
:10119000B11D89839A83AB83BC838D818093800248
:1011A00089819A81AB81BC8180937C0290937D027E
:1011B000A0937E02B0937F02809178029091790291
:1011C000A0917A02B0917B020196A11DB11D80937E
:1011D000780290937902A0937A02B0937B020F90E9
:1011E0000F900F900F900F90DF91CF91BF91AF9123
:1011F0009F918F910F9000925F000F901F90189514
:10120000CF93DF9300D01F921F92CDB7DEB78FE54B
:1012100090E0FC0180818983F89480917C02909118
:101220007D02A0917E02B0917F028A839B83AC8372
:10123000BD838FE590E02981FC0120838A819B8119
:10124000AC81BD81BC01CD010F900F900F900F902C
:101250000F90DF91CF910895CF93DF9300D000D00E
:10126000CDB7DEB78FE590E0FC0180818D83F894E7
:101270008091780290917902A0917A02B0917B02DC
:1012800089839A83AB83BC8386E490E0FC018081F0
:101290008E8385E390E0FC018081882F90E081704F
:1012A0009927009771F08E818F3F59F089819A813B
:1012B000AB81BC810196A11DB11D89839A83AB834B
:1012C000BC838FE590E02D81FC01208389819A8188
:1012D000AB81BC812227382F492F5A2F8E81882F2E
:1012E00090E0A0E0B0E0820F931FA41FB51F880F0D
:1012F000991FAA1FBB1F880F991FAA1FBB1FBC01E4
:10130000CD0126960FB6F894DEBF0FBECDBFDF919C
:10131000CF910895EF92FF920F931F93CF93DF9396
:10132000CDB7DEB728970FB6F894DEBF0FBECDBF9E
:101330006D837E838F8398870E942C09DC01CB010B
:1013400089839A83AB83BC8338C00E94870817C007
:101350008D819E81AF81B8850197A109B1098D83E7
:101360009E83AF83B88789819A81AB81BC81885184
:101370009C4FAF4FBF4F89839A83AB83BC838D81D2
:101380009E81AF81B8850097A105B105B1F00E949B
:101390002C099B01AC0189819A81AB81BC817901C7
:1013A0008A01E81AF90A0A0B1B0BD801C701883E0B
:1013B00003E09007A105B10558F68D819E81AF81AC
:1013C000B8850097A105B10509F0BFCF28960FB6E3
:1013D000F894DEBF0FBECDBFDF91CF911F910F916B
:1013E000FF90EF900895CF93DF931F921F92CDB798
:1013F000DEB79A83898389819A818230910508F4C6
:1014000013C089819A81880F991F880F991F9A8329
:10141000898389819A8105979A83898389819A81B1
:101420000197F1F79A8389830F900F90DF91CF9105
:101430000895CF93DF93CDB7DEB7789484E490E03E
:1014400024E430E0F90120812260FC01208384E45F
:1014500090E024E430E0F90120812160FC01208348
:1014600085E490E025E430E0F90120812260FC0170
:10147000208385E490E025E430E0F90120812160BB
:10148000FC0120838EE690E02EE630E0F901208119
:101490002160FC01208381E890E0FC01108281E85A
:1014A00090E021E830E0F90120812260FC012083F6
:1014B00081E890E021E830E0F90120812160FC0121
:1014C000208380E890E020E830E0F901208121606D
:1014D000FC01208381EB90E021EB30E0F9012081D9
:1014E0002460FC01208380EB90E020EB30E0F901E8
:1014F00020812160FC01208381E990E021E930E036
:10150000F90120812260FC01208381E990E021E93A
:1015100030E0F90120812160FC01208380E990E026
:1015200020E930E0F90120812160FC01208381EA7B
:1015300090E021EA30E0F90120812260FC01208363
:1015400081EA90E021EA30E0F90120812160FC018C
:10155000208380EA90E020EA30E0F90120812160D8
:10156000FC01208381E291E021E231E0F901208158
:101570002260FC01208381E291E021E231E0F90167
:1015800020812160FC01208380E291E020E231E0B3
:10159000F90120812160FC0120838AE790E02AE79D
:1015A00030E0F90120812460FC0120838AE790E08B
:1015B0002AE730E0F90120812260FC0120838AE7DC
:1015C00090E02AE730E0F90120812160FC012083CE
:1015D0008AE790E02AE730E0F90120812068FC01E9
:1015E000208381EC90E0FC011082DF91CF9108957F
:1015F000CF92DF92EF92FF920F931F93CF93DF93DF
:10160000CDB7DEB72E970FB6F894DEBF0FBECDBFB5
:101610009A838983CB82DC82ED82FE820F831887D6
:1016200029873A874B875C876D877E87EB80FC80B4
:101630000D811E812F81388549855A856B857C8572
:101640008D859E850E949C039C0189819A81A901B8
:1016500061E070E00E949D0289819A812E960FB60A
:10166000F894DEBF0FBECDBFDF91CF911F910F91D8
:10167000FF90EF90DF90CF900895CF92DF92EF929E
:10168000FF920F931F93CF93DF93CDB7DEB72E97C3
:101690000FB6F894DEBF0FBECDBF9A838983CB828D
:1016A000DC82ED82FE820F83188729873A874B8779
:1016B0005C876D877E87EB80FC800D811E812F818A
:1016C000388549855A856B857C858D859E850E94E8
:1016D0009C039C0189819A81A90160E070E00E94CD
:1016E0009D0289819A812E960FB6F894DEBF0FBEB7
:1016F000CDBFDF91CF911F910F91FF90EF90DF90C1
:10170000CF900895CF92DF92EF92FF920F931F93A5
:10171000CF93DF93CDB7DEB72E970FB6F894DEBF29
:101720000FBECDBF9A838983CB82DC82ED82FE829D
:101730000F83188729873A874B875C876D877E8759
:10174000EB80FC800D811E812F81388549855A856B
:101750006B857C858D859E850E949C039C0189817B
:101760009A81A90160E070E00E949D0289819A81BE
:101770002E960FB6F894DEBF0FBECDBFDF91CF918E
:101780001F910F91FF90EF90DF90CF900895CF922F
:10179000DF92EF92FF920F931F93CF93DF93CDB71A
:1017A000DEB72E970FB6F894DEBF0FBECDBF9A837B
:1017B0008983CB82DC82ED82FE820F8318872987A2
:1017C0003A874B875C876D877E87EB80FC800D8135
:1017D0001E812F81388549855A856B857C858D854D
:1017E0009E850E949C039C0189819A81A90161E0E8
:1017F00070E00E949D0289819A812E960FB6F8941E
:10180000DEBF0FBECDBFDF91CF911F910F91FF9033
:10181000EF90DF90CF900895CF92DF92EF92FF92FA
:101820000F931F93CF93DF93CDB7DEB72E970FB6ED
:10183000F894DEBF0FBECDBF9A838983CB82DC8252
:10184000ED82FE820F83188729873A874B875C8752
:101850006D877E87EA8CFB8C0C8D1D8D2E8D3F8DC8
:1018600048A159A16AA17BA18CA19DA10E947303EB
:10187000D82EEB80FC800D811E812F813885498513
:101880005A856B857C858D859E850E9473036D2DA1
:101890000E940D0689819A812E960FB6F894DEBFBC
:1018A0000FBECDBFDF91CF911F910F91FF90EF90B1
:1018B000DF90CF900895CF92DF92EF92FF920F9337
:1018C0001F93CF93DF93CDB7DEB72E970FB6F89463
:1018D000DEBF0FBECDBF9A838983CB82DC82ED82CF
:1018E000FE820F83188729873A874B875C876D872D
:1018F0007E87EB80FC800D811E812F813885498594
:101900005A856B857C858D859E850E949C039C01F4
:1019100089819A81A9016CE07CE00E94D2058981CD
:101920009A812E960FB6F894DEBF0FBECDBFDF9121
:10193000CF911F910F91FF90EF90DF90CF9008957E
:10194000CF92DF92EF92FF920F931F93CF93DF938B
:10195000CDB7DEB76C970FB6F894DEBF0FBECDBF24
:10196000988B8F87C98ADA8AEB8AFC8A0D8B1E8B4B
:101970002F8B388F498F5A8F6B8F7C8FE988FA882D
:101980000B891C892D893E894F89588D698D7A8DE7
:101990008B8D9C8D0E947303AA2797FDA095BA2F6B
:1019A000BC01CD010E948413DC01CB0189839A83A1
:1019B000AB83BC8320E030E04AE755E469817A815B
:1019C0008B819C810E941014DC01CB018D839E834E
:1019D000AF83B88720E030E040E85FE36D817E812F
:1019E0008F8198850E94521388232CF481E090E027
:1019F0009A8789873FC020E03FEF4FE757E46D812A
:101A00007E818F8198850E940C1418164CF520E079
:101A100030E040E251E469817A818B819C810E94AF
:101A20001014DC01CB01BC01CD010E945613DC0176
:101A3000CB019A8789870FC080E991E09C878B87CB
:101A40008B859C850197F1F79C878B8789859A8583
:101A500001979A87898789859A85009769F714C0C5
:101A60006D817E818F8198850E945613DC01CB01A8
:101A70009A87898789859A859E878D878D859E859A
:101A80000197F1F79E878D878F8598896C960FB6A1
:101A9000F894DEBF0FBECDBFDF91CF911F910F91A4
:101AA000FF90EF90DF90CF900895CF92DF92EF926A
:101AB000FF920F931F93CF93DF93CDB7DEB72E978F
:101AC0000FB6F894DEBF0FBECDBF9A838983CB8259
:101AD000DC82ED82FE820F83188729873A874B8745
:101AE0005C876D877E87EB80FC800D811E812F8156
:101AF000388549855A856B857C858D859E850E94B4
:101B00009C039C0189819A81A90160EA7CE00E9482
:101B1000D20589819A812E960FB6F894DEBF0FBE4A
:101B2000CDBFDF91CF911F910F91FF90EF90DF908C
:101B3000CF900895CF92DF92EF92FF920F931F9371
:101B4000CF93DF93CDB7DEB72E970FB6F894DEBFF5
:101B50000FBECDBF9A838983CB82DC82ED82FE8269
:101B60000F83188729873A874B875C876D877E8725
:101B7000EA8CFB8C0C8D1D8D2E8D3F8D48A159A1BB
:101B80006AA17BA18CA19DA10E947303D82EEB803A
:101B9000FC800D811E812F81388549855A856B8592
:101BA0007C858D859E850E9473036D2D0E9496070E
:101BB00089819A812E960FB6F894DEBF0FBECDBFF5
:101BC000DF91CF911F910F91FF90EF90DF90CF9019
:101BD0000895CF92DF92EF92FF920F931F93CF93CE
:101BE000DF93CDB7DEB72E970FB6F894DEBF0FBEEA
:101BF000CDBF9A838983CB82DC82ED82FE820F8304
:101C0000188729873A874B875C876D877E87EB80AB
:101C1000FC800D811E812F81388549855A856B8511
:101C20007C858D859E850E949C039C0189819A817B
:101C3000A9016AE97DE00E94D20589819A812E96E8
:101C40000FB6F894DEBF0FBECDBFDF91CF911F91CD
:101C50000F91FF90EF90DF90CF900895AF92BF92D9
:101C6000CF92DF92EF92FF920F931F93CF93DF9368
:101C7000CDB7DEB7CA57D1090FB6F894DEBF0FBE95
:101C8000CDBF9E0123593F4FD9018D939C93CE0127
:101C90008B5A9F4F48E252E068E070E00E948B054B
:101CA000CE018F599F4F4FE252E068E070E00E94F2
:101CB0008B05CE018F599F4F0E9473045C01CE01AA
:101CC000875B9F4F2CE0FC01322F11923A95E9F788
:101CD000CE01875B9F4F27E332E0DC012D933C93DD
:101CE000CE01875B9F4F2AE030E0FC0135832483DF
:101CF000CE01875B9F4F21E132E0DC0117963C93D8
:101D00002E931697CE01875B9F4F25E030E0FC01B4
:101D100031872087FE01E159FF4FCE01875B9F4F3E
:101D2000DC01CC90DC011196DC90DC011296EC9089
:101D3000DC011396FC90DC0114960C91DC011596E5
:101D40001C91DC0116962C91DC0117963C91DC016C
:101D500018964C91DC0119965C91DC011A966C91F5
:101D6000DC011B967C91CF010E945B0CCE01815956
:101D70009F4F2CE0FC01D50101900D922A95E1F7CF
:101D8000CE018F599F4F0E9473045C012CE0CE015D
:101D9000CD96FC01322F11923A95E9F78FE392E04C
:101DA0009EAF8DAFCE018F5B9F4F2AE030E0DC010C
:101DB0002D933C93CE018D5B9F4F21E132E0FC01DE
:101DC00031832083CE018B5B9F4F23E030E0DC0129
:101DD0002D933C93CE0181599F4FCDACDEACEFAC3F
:101DE0009E01205C3F4FF901F0809E012F5B3F4F29
:101DF000D9010C919E012E5B3F4FF90110819E018C
:101E00002D5B3F4FD9012C91AE014C5B5F4FFA0126
:101E10003081AE014B5B5F4FDA014C91BE016A5BD2
:101E20007F4FFB015081BE01695B7F4FDB016C91ED
:101E3000FE01E85BFF4F70810E94550DCE01815974
:101E40009F4F2CE0FC01D50101900D922A95E1F7FE
:101E5000CE018F599F4F0E9473045C012CE0CE018C
:101E6000C196FC01322F11923A95E9F785E492E090
:101E70009AAB89AB8AE090E09EAB8DAB81E192E0BA
:101E800098AF8FAB8AE090E09AAF89AFCE018159CD
:101E90009F4FC9A8DAA8EBA8FCA80DA91EA92FA9D5
:101EA00038AD49AD5AAD6BAD7CAD0E94E90DCE01A8
:101EB00081599F4F2CE0FC01D50101900D922A958C
:101EC000E1F7CE018F599F4F0E9473045C012CE013
:101ED000CE018596DC01E22F1D92EA95E9F782E5B5
:101EE00092E09EA38DA38AE090E09AA789A781E162
:101EF00092E09CA78BA784E090E09EA78DA7CE01DF
:101F000081599F4FCDA0DEA0EFA0F8A409A51AA586
:101F10002BA53CA54DA55EA56FA578A90E94F80A42
:101F2000CE0181599F4F2CE0FC01D50101900D920B
:101F30002A95E1F7CE018F599F4F0E9473045C01EF
:101F40002CE0CE014996DC01E22F1D92EA95E9F7DB
:101F500089E592E09A8F898F8AE090E09E8F8D8F3D
:101F600081E192E098A38F8F83E090E09AA389A308
:101F7000CE0181599F4FC98CDA8CEB8CFC8C0D8D76
:101F80001E8D2F8D38A149A15AA16BA17CA10E9461
:101F90003D0BCE0181599F4F2CE0FC01D5010190F2
:101FA0000D922A95E1F7CE018F599F4F0E9473043D
:101FB0005C012CE0CE010D96DC01E22F1D92EA952A
:101FC000E9F78FE592E09E878D878AE090E09A8B13
:101FD000898B81E192E09C8B8B8B81E090E09E8BE2
:101FE0008D8BCE0181599F4FCD84DE84EF84F8889C
:101FF00009891A892B893C894D895E896F89788D79
:102000000E94820BCE0181599F4F2CE0FC01D5012B
:1020100001900D922A95E1F7CE018F599F4F0E94B2
:1020200073045C012CE0CE010196DC01E22F1D92CD
:10203000EA95E9F783E692E09A8389838AE090E063
:102040009E838D8381E192E098878F8382E090E088
:102050009A878987CE0181599F4FC980DA80EB80AA
:10206000FC800D811E812F81388549855A856B85BD
:102070007C850E94C70BCE0181599F4F2CE0FC014B
:10208000D50101900D922A95E1F7CE018B5A9F4F11
:102090009E012F593F4F4CE0F901DC0101900D9258
:1020A0004A95E1F7CE0183599F4FDC018D919C91B8
:1020B0009E012B5A3F4F4CE0F901DC0101900D923B
:1020C0004A95E1F7CE0183599F4FFC0180819181B0
:1020D000C658DF4F0FB6F894DEBF0FBECDBFDF91FD
:1020E000CF911F910F91FF90EF90DF90CF90BF9015
:1020F000AF900895CF93DF93CDB7DEB72E970FB68D
:10210000F894DEBF0FBECDBF9E878D8748E252E0B8
:1021100068E070E0CE0101960E948B058D859E855A
:102120004CE09E012F5F3F4FF901DC0101900D92C1
:102130004A95E1F78D859E852E960FB6F894DEBF01
:102140000FBECDBFDF91CF9108958F929F92AF9236
:10215000BF92CF92DF92EF92FF920F931F93CF9394
:10216000DF93CDB7DEB7C85BD1090FB6F894DEBFF9
:102170000FBECDBF9E0127553F4FD9018D939C9334
:10218000CE0185559F4FFC0171836083CE018F592D
:102190009F4F0E942E0ECE0183599F4F0E947A10AE
:1021A000CE0187589F4F2CE0DC01E22F1D92EA956B
:1021B000E9F7CE0187589F4F29E030E0DC012D93ED
:1021C0003C93CE0187589F4F21E132E0FC013783D9
:1021D0002683CE0187589F4F21E030E0DC0119961D
:1021E0003C932E931897CE018B5A9F4F2CE0FC0105
:1021F000322F11923A95E9F7CE018B5A9F4F2FE576
:1022000032E0DC012D933C93CE018B5A9F4F2AE0A4
:1022100030E0FC0135832483CE018B5A9F4F21E0AF
:1022200030E0DC0119963C932E931897CE018B5A1F
:102230009F4FFE01EF59FF4FDC01CC90DC0111965E
:10224000DC90DC011296EC90DC011396FC90DC0132
:1022500014960C91DC0115961C91DC0116962C91BC
:10226000DC0117963C91DC0118964C91DC01199623
:102270005C91DC011A966C91DC011B967C91CF017C
:102280000E94C5039C01CE018B579F4F4CE0F90182
:10229000DC0101900D924A95E1F7CE01875B9F4FDB
:1022A0002CE0FC01322F11923A95E9F7CE01875BC1
:1022B0009F4F23E632E0DC012D933C93CE01875BF8
:1022C0009F4F2AE030E0FC0135832483CE01875BF9
:1022D0009F4F21E030E0DC0119963C932E93189734
:1022E000CE01875B9F4FFE01EF59FF4FDC01CC9081
:1022F000DC011196DC90DC011296EC90DC01139667
:10230000FC90DC0114960C91DC0115961C91DC010B
:1023100016962C91DC0117963C91DC0118964C9195
:10232000DC0119965C91DC011A966C91DC011B961C
:102330007C91CF010E94C5039C01CE018F569F4F17
:102340004CE0F901DC0101900D924A95E1F7CE01D4
:1023500083569F4F2CE0FC01322F11923A95E9F7FA
:10236000CE0183569F4F21E132E0DC0117963C936A
:102370002E931697CE0183569F4F21E030E0FC014B
:10238000318720872CE0CE01CD96DC01E22F1D9213
:10239000EA95E9F787E392E09EAF8DAFCE018F5BC0
:1023A0009F4F2AE030E0DC012D933C93CE018B5B04
:1023B0009F4F21E030E0FC0131832083CE018F5913
:1023C0009F4FCDACDEACEFAC9E01205C3F4FD901FE
:1023D000FC909E012F5B3F4FF90100819E012E5B17
:1023E0003F4FD9011C919E012D5B3F4FF901208188
:1023F000AE014C5B5F4FDA013C91AE014B5B5F4F2E
:10240000FA014081BE016A5B7F4FDB015C91BE0136
:10241000695B7F4FFB016081FE01E85BFF4F7081CC
:102420000E94C503DC018D919C914C012CE0CE01F2
:10243000C196FC01322F11923A95E9F782E592E0BC
:102440009AAB89AB8AE090E09EAB8DAB81E090E0E7
:102450009AAF89AFCE018F599F4FC9A8DAA8EBA8D0
:10246000FCA80DA91EA92FA938AD49AD5AAD6BAD79
:102470007CAD0E94C5039C01FE01E355FF4FCE01D8
:1024800087589F4F5901DC01CC90DC011196DC90FC
:10249000DC011296EC90DC011396FC90DC011496A2
:1024A0000C91DC0115961C91DC0116962C91DC0137
:1024B00017963C91DC0118964C91DC0119965C91C1
:1024C000DC011A966C91DC011B967C91CF01F40122
:1024D00019952CE0CE018596DC01E22F1D92EA953C
:1024E000E9F788E692E09EA38DA38AE090E09AA7A0
:1024F00089A781E090E09EA78DA7CE018F599F4FBD
:10250000CDA0DEA0EFA0F8A409A51AA52BA53CA597
:102510004DA55EA56FA578A90E94C503DC018D912C
:102520009C915C012CE0CE014996FC01322F119266
:102530003A95E9F784E792E09A8F898F8AE090E0F4
:102540009E8F8D8F4E018DEA880E911CCE0187588B
:102550009F4FADB7BEB71C970FB6F894BEBF0FBE66
:10256000ADBF2DB73EB72F5F3F4F4CE0FE017996D0
:10257000D90101900D924A95E1F7FC01C080DC0180
:102580001196DC90FC01E280DC011396FC90FC01CA
:102590000481DC0115961C91FC012681DC01179653
:1025A0003C91FC014085DC0119965C91FC0162853F
:1025B000DC011B967C91C401F50119952DB73EB73E
:1025C000245F3F4F0FB6F894DEBF0FBECDBFCE01E4
:1025D00083569F4FDC0115961C921E921497CE01D4
:1025E00083569F4FFC01808191819C012B5F3F4F5F
:1025F000CE0183569F4FDC012D933C932CE0CE01FE
:102600000D96FC01322F11923A95E9F78FE392E093
:102610009E878D878AE090E09A8B898B81E090E09D
:102620009E8B8D8BCE018F599F4FCD84DE84EF849E
:10263000F88809891A892B893C894D895E896F89B7
:10264000788D0E94C503DC018D919C91FC012CE0EA
:10265000CE010196DC01322F1D923A95E9F784E60E
:1026600090E09A83898381E192E098878F8381E06B
:1026700090E09A878987CE0183559F4FC980DA8081
:10268000EB80FC800D811E812F81388549855A851C
:102690006B857C8519951DCFEE0FFF1F0590F4917A
:1026A000E02D19946CD008F481E0089594D088F05E
:1026B0009F5790F0B92F9927B751A0F0D1F0660F2E
:1026C000771F881F991F1AF0BA95C9F712C0B13049
:1026D00081F09BD0B1E0089598C0672F782F8827AC
:1026E000B85F39F0B93FCCF3869577956795B39588
:1026F000D9F73EF490958095709561957F4F8F4FF7
:102700009F4F0895E89409C097FB3EF490958095FB
:10271000709561957F4F8F4F9F4F9923A9F0F92FA7
:1027200096E9BB279395F695879577956795B79525
:10273000F111F8CFFAF4BB0F11F460FF1BC06F5F0B
:102740007F4F8F4F9F4F16C0882311F096E911C01D
:10275000772321F09EE8872F762F05C0662371F03E
:1027600096E8862F70E060E02AF09A95660F771F52
:10277000881FDAF7880F9695879597F90895990F2E
:102780000008550FAA0BE0E8FEEF16161706E8073B
:10279000F907C0F012161306E407F50798F0621B5C
:1027A000730B840B950B39F40A2661F0232B242B31
:1027B000252B21F408950A2609F4A140A6958FEF50
:1027C000811D811D089557FD9058440F551F59F0E4
:1027D0005F3F71F04795880F97FB991F61F09F3F0E
:1027E00079F087950895121613061406551FF2CF37
:1027F0004695F1DF08C0161617061806991FF1CF87
:1028000086957105610508940895E894BB276627AD
:102810007727CB0197F90895B2DF08F48FEF089579
:102820000BD078C069D028F06ED018F0952309F04D
:102830005AC05FC01124EACFC6DFA0F3959FD1F341
:10284000950F50E0551F629FF001729FBB27F00D5E
:10285000B11D639FAA27F00DB11DAA1F649F6627B3
:10286000B00DA11D661F829F2227B00DA11D621F02
:10287000739FB00DA11D621F839FA00D611D221FBC
:10288000749F3327A00D611D231F849F600D211DA0
:10289000822F762F6A2F11249F5750408AF0E1F043
:1028A00088234AF0EE0FFF1FBB1F661F771F881F8C
:1028B00091505040A9F79E3F510570F014C0A6CF2B
:1028C0005F3FECF3983EDCF3869577956795B79577
:1028D000F795E7959F5FC1F7FE2B880F911D9695A1
:1028E000879597F9089597F99F6780E870E060E011
:1028F00008959FEF80EC089500240A941616170699
:1029000018060906089500240A94121613061406E0
:1029100005060895092E0394000C11F4882352F043
:10292000BB0F40F4BF2B11F460FF04C06F5F7F4FFB
:102930008F4F9F4F0895CF93DF938230910510F40E
:1029400082E090E0E0918302F091840220E030E0A8
:10295000A0E0B0E0309739F1408151814817590724
:10296000B8F04817590771F482819381109729F0C4
:1029700013969C938E9312972CC09093840280930D
:10298000830227C02115310531F04217530718F093
:10299000A901DB0101C0EF019A01BD01DF01028045
:1029A000F381E02DD7CF21153105F9F0281B390B24
:1029B0002430310580F48A819B816115710521F0F5
:1029C000FB019383828304C09093840280938302EB
:1029D000FE01329644C0FE01E20FF31F81939193F2
:1029E00022503109398328833AC0209181023091E5
:1029F0008202232B41F42091020230910302309392
:102A0000820220938102209100023091010221155F
:102A1000310541F42DB73EB74091040250910502B3
:102A2000241B350BE0918102F0918202E217F3073B
:102A3000A0F42E1B3F0B2817390778F0AC014E5F2E
:102A40005F4F2417350748F04E0F5F1F50938202E7
:102A5000409381028193919302C0E0E0F0E0CF01C6
:102A6000DF91CF910895CF93DF93009709F487C04A
:102A7000FC01329713821282C0918302D0918402AA
:102A8000209781F420813181280F391F80918102A4
:102A9000909182028217930779F5F0938202E09376
:102AA00081026DC0DE0120E030E0AE17BF0750F4B8
:102AB00012964D915C9113979D014115510509F1B5
:102AC000DA01F3CFB383A28340815181840F951F34
:102AD0008A179B0771F48D919C911197840F951F14
:102AE00002969183808312968D919C911397938384
:102AF00082832115310529F4F0938402E093830247
:102B00003EC0D9011396FC93EE9312974D915D91BF
:102B1000A40FB51FEA17FB0779F480819181840F18
:102B2000951F0296D90111969C938E938281938171
:102B300013969C938E931297E0E0F0E08A819B813C
:102B4000009719F0FE01EC01F9CFCE010296288121
:102B50003981820F931F20918102309182022817C0
:102B6000390769F4309729F4109284021092830295
:102B700002C013821282D0938202C0938102DF913D
:102B8000CF9108956F927F928F929F92AF92BF9252
:102B9000CF92DF92EF92FF920F931F93CF93DF9329
:102BA000EC01CB01209781F4DF91CF911F910F9120
:102BB000FF90EF90DF90CF90BF90AF909F908F905D
:102BC0007F906F900C949B14FE01E60FF71F9E01FF
:102BD00022503109E217F30708F4ACC0D9010D9176
:102BE0001C91119706171707B8F00530110508F466
:102BF0009FC0A801445051094617570708F498C0D0
:102C000002501109061B170B019311936D937C93CE
:102C1000CF010E9433158CC05B01A01AB10A4E018E
:102C2000800E911EA0918302B0918402612C712CC0
:102C300060E070E0109709F449C0A815B905C9F51E
:102C4000ED90FC901197670142E0C40ED11CCA14AC
:102C5000DB0478F147018A189B08640142E0C40E46
:102C6000D11C1296BC9012971396AC91B5E0CB167E
:102C7000D10440F0B282A38391828082D9018D93E6
:102C80009C9309C00E5F1F4F0E0D1F1DF90111838C
:102C90000083EB2DFA2F6115710531F0DB011396DE
:102CA000FC93EE93129744C0F0938402E093830266
:102CB0003FC06D917C9111976616770608F43B0131
:102CC000BD0112960D90BC91A02DB4CF60918102F0
:102CD0007091820268157905E9F468167906D0F4D6
:102CE00040910002509101024115510541F44DB748
:102CF0005EB76091040270910502461B570BE41702
:102D0000F507C0F4F0938202E0938102F901918308
:102D100080830EC00E949B147C01009759F0A8018B
:102D2000BE010E94AB16CE010E943315C70104C03C
:102D3000CE0102C080E090E0DF91CF911F910F9112
:102D4000FF90EF90DF90CF90BF90AF909F908F90CB
:102D50007F906F900895FB01DC0102C001900D92FD
:102D600041505040D8F70895FB01DC018D9101904E
:102D700080190110D9F3990B0895FC0101900020EE
:102D8000E9F7809590958E0F9F1F0895F894FFCFD7
:102D90000000850220005F5F72657475726E5F5F70
:102DA0000000353332341415363738393A3B3C3D60
:102DB0003E3F4041424344454D4F44554C450061E0
:102DC000726475696E6F0070696E4D6F6465006442
:102DD000656C6179006469676974616C57726974C4
:102DE00065004F555450555400494E505554004CB1
:102DF0004F57004849474800616E616C6F675772D2
:082E0000697465004E614E008B
:00000001FF
